{
  "contractName": "dCoders",
  "abi": [
    {
      "constant": true,
      "inputs": [
        {
          "name": "",
          "type": "uint256"
        }
      ],
      "name": "participants",
      "outputs": [
        {
          "name": "",
          "type": "address"
        }
      ],
      "payable": false,
      "stateMutability": "view",
      "type": "function"
    },
    {
      "constant": true,
      "inputs": [],
      "name": "organiser",
      "outputs": [
        {
          "name": "",
          "type": "address"
        }
      ],
      "payable": false,
      "stateMutability": "view",
      "type": "function"
    },
    {
      "constant": true,
      "inputs": [],
      "name": "regFee",
      "outputs": [
        {
          "name": "",
          "type": "uint256"
        }
      ],
      "payable": false,
      "stateMutability": "view",
      "type": "function"
    },
    {
      "constant": true,
      "inputs": [],
      "name": "balance",
      "outputs": [
        {
          "name": "",
          "type": "uint256"
        }
      ],
      "payable": false,
      "stateMutability": "view",
      "type": "function"
    },
    {
      "constant": true,
      "inputs": [],
      "name": "numRegistrants",
      "outputs": [
        {
          "name": "",
          "type": "uint256"
        }
      ],
      "payable": false,
      "stateMutability": "view",
      "type": "function"
    },
    {
      "inputs": [],
      "payable": false,
      "stateMutability": "nonpayable",
      "type": "constructor"
    },
    {
      "payable": true,
      "stateMutability": "payable",
      "type": "fallback"
    },
    {
      "anonymous": false,
      "inputs": [
        {
          "indexed": true,
          "name": "_from",
          "type": "address"
        },
        {
          "indexed": true,
          "name": "_amount",
          "type": "uint256"
        }
      ],
      "name": "Register",
      "type": "event"
    },
    {
      "constant": false,
      "inputs": [],
      "name": "deliverPrizes",
      "outputs": [],
      "payable": false,
      "stateMutability": "nonpayable",
      "type": "function"
    }
  ],
  "bytecode": "0x608060405234801561001057600080fd5b50336000806101000a81548173ffffffffffffffffffffffffffffffffffffffff021916908373ffffffffffffffffffffffffffffffffffffffff16021790555060006001819055506702c68af0bb14000060028190555033600560006101000a81548173ffffffffffffffffffffffffffffffffffffffff021916908373ffffffffffffffffffffffffffffffffffffffff16021790555061041e806100b86000396000f3fe608060405260043610610078576000357c0100000000000000000000000000000000000000000000000000000000900463ffffffff16806335c1d349146101345780636914c0fe146101af5780637e537486146101c65780638fff20f31461021d578063b69ef8a814610248578063ec3a6f7314610273575b60025460036000828254019250508190555033600460015481548110151561009c57fe5b9060005260206000200160006101000a81548173ffffffffffffffffffffffffffffffffffffffff021916908373ffffffffffffffffffffffffffffffffffffffff1602179055506001805401600181905550343373ffffffffffffffffffffffffffffffffffffffff167e7dc6ab80cc84c043b7b8d4fcafc802187470087f7ea7fccd2e17aecd0256a160405160405180910390a3005b34801561014057600080fd5b5061016d6004803603602081101561015757600080fd5b810190808035906020019092919050505061029e565b604051808273ffffffffffffffffffffffffffffffffffffffff1673ffffffffffffffffffffffffffffffffffffffff16815260200191505060405180910390f35b3480156101bb57600080fd5b506101c46102dc565b005b3480156101d257600080fd5b506101db6103bb565b604051808273ffffffffffffffffffffffffffffffffffffffff1673ffffffffffffffffffffffffffffffffffffffff16815260200191505060405180910390f35b34801561022957600080fd5b506102326103e0565b6040518082815260200191505060405180910390f35b34801561025457600080fd5b5061025d6103e6565b6040518082815260200191505060405180910390f35b34801561027f57600080fd5b506102886103ec565b6040518082815260200191505060405180910390f35b6004818154811015156102ad57fe5b906000526020600020016000915054906101000a900473ffffffffffffffffffffffffffffffffffffffff1681565b600560009054906101000a900473ffffffffffffffffffffffffffffffffffffffff1673ffffffffffffffffffffffffffffffffffffffff163373ffffffffffffffffffffffffffffffffffffffff16141515610338576103b9565b600560009054906101000a900473ffffffffffffffffffffffffffffffffffffffff1673ffffffffffffffffffffffffffffffffffffffff166108fc3073ffffffffffffffffffffffffffffffffffffffff16319081150290604051600060405180830381858888f193505050501580156103b7573d6000803e3d6000fd5b505b565b6000809054906101000a900473ffffffffffffffffffffffffffffffffffffffff1681565b60025481565b60035481565b6001548156fea165627a7a72305820d7567ce50e1f8aadf8df327f00eae32fcacdc5b25a17d977914ff557da6731060029",
  "source": "pragma solidity >=0.4.22;\n\n\ncontract dCoders {\n  address public organiser;\n  uint public numRegistrants;\n  uint public regFee;\n  event Register(address indexed _from,uint indexed _amount);\n  // mapping (address => uint) public balance;\n  uint public balance;  \n  address[] public participants;\n  address payable winner;\n  constructor() public {\n    organiser = msg.sender;\n    numRegistrants = 0;\n    regFee = 200000000000000000 wei;\n    winner=msg.sender;\n  }\n\n  modifier onlyOwner{\n    require(msg.sender == organiser);\n    _;\n  }\n\n  // function findBalance() public returns(uint) {\n  //   return balance;\n  // }\n\n  function () payable external {\n//  require(msg.value == regFee);\n// uint256 cash = msg.value;\n// if(cash != regFee)  {return;}\n\n// if(msg.value != regFee) {return;}\n\n//  balance[address(this)] += regFee;\n    balance += regFee;\n participants[numRegistrants] = msg.sender;\n numRegistrants = numRegistrants + 1;     \n emit Register(msg.sender,msg.value);  \n  \n}\n\n// function redistribute() private onlyOwner payable{\n  \n\n// }\n\nfunction deliverPrizes() public{\n  if(msg.sender != winner) {return;}\n  winner.transfer(address(this).balance);\n}\n\n\n\n\n\n}\n",
  "sourcePath": "/home/hrishabh/Desktop/dCoders/contracts/dCoders.sol",
  "compiler": {
    "name": "solc",
    "version": "0.5.0+commit.1d4f565a.Emscripten.clang"
  },
  "schemaVersion": "3.0.0",
  "updatedAt": "2019-01-19T11:33:37.924Z",
  "devdoc": {
    "methods": {}
  },
  "userdoc": {
    "methods": {}
  }
}