{
  "contractName": "dCoders",
  "abi": [
    {
      "constant": true,
      "inputs": [
        {
          "name": "",
          "type": "address"
        }
      ],
      "name": "balances",
      "outputs": [
        {
          "name": "",
          "type": "uint256"
        }
      ],
      "payable": false,
      "stateMutability": "view",
      "type": "function",
      "signature": "0x27e235e3"
    },
    {
      "inputs": [],
      "payable": false,
      "stateMutability": "nonpayable",
      "type": "constructor",
      "signature": "constructor"
    },
    {
      "payable": true,
      "stateMutability": "payable",
      "type": "fallback"
    },
    {
      "anonymous": false,
      "inputs": [
        {
          "indexed": true,
          "name": "_buyer",
          "type": "address"
        },
        {
          "indexed": false,
          "name": "_amount",
          "type": "uint256"
        }
      ],
      "name": "prizeDistribution",
      "type": "event",
      "signature": "0x62d924e91ed4409bc4fd09109a0acbab8812f25e328a7afcd2cfc8f72ba531b6"
    },
    {
      "constant": false,
      "inputs": [
        {
          "name": "_winner",
          "type": "address"
        }
      ],
      "name": "distri",
      "outputs": [],
      "payable": false,
      "stateMutability": "nonpayable",
      "type": "function",
      "signature": "0xe55809af"
    }
  ],
  "bytecode": "0x6080604052671bc16d674ec80000600155600060035534801561002157600080fd5b50336000806101000a81548173ffffffffffffffffffffffffffffffffffffffff021916908373ffffffffffffffffffffffffffffffffffffffff160217905550671bc16d674ec8000060018190555061031e806100806000396000f3fe60806040526004361061004c576000357c0100000000000000000000000000000000000000000000000000000000900463ffffffff16806327e235e314610160578063e55809af146101c5575b34600460003373ffffffffffffffffffffffffffffffffffffffff1673ffffffffffffffffffffffffffffffffffffffff1681526020019081526020016000206000828254039250508190555034600460003073ffffffffffffffffffffffffffffffffffffffff1673ffffffffffffffffffffffffffffffffffffffff1681526020019081526020016000206000828254019250508190555060023390806001815401808255809150509060018203906000526020600020016000909192909190916101000a81548173ffffffffffffffffffffffffffffffffffffffff021916908373ffffffffffffffffffffffffffffffffffffffff16021790555050600360008154809291906001019190505550005b34801561016c57600080fd5b506101af6004803603602081101561018357600080fd5b81019080803573ffffffffffffffffffffffffffffffffffffffff169060200190929190505050610216565b6040518082815260200191505060405180910390f35b3480156101d157600080fd5b50610214600480360360208110156101e857600080fd5b81019080803573ffffffffffffffffffffffffffffffffffffffff16906020019092919050505061022e565b005b60046020528060005260406000206000915090505481565b80600560006101000a81548173ffffffffffffffffffffffffffffffffffffffff021916908373ffffffffffffffffffffffffffffffffffffffff160217905550600560009054906101000a900473ffffffffffffffffffffffffffffffffffffffff1673ffffffffffffffffffffffffffffffffffffffff166108fc3073ffffffffffffffffffffffffffffffffffffffff16319081150290604051600060405180830381858888f193505050501580156102ee573d6000803e3d6000fd5b505056fea165627a7a7230582097a8528c4a3ebb217caba923cda41f5ebd4bb48f4e3fb27830cd1402ab0fde5e0029",
  "source": "pragma solidity >=0.4.22;\n\ncontract dCoders{\n    \n    address owner;\n    uint256 regFee = 2 ether;\n    address[] private registered;\n    uint a = 0;\n    \n    mapping(address => uint256) public balances;\n    address payable winner;\n    \n    event prizeDistribution( address indexed _buyer, uint256 _amount);\n    \n    constructor() public{\n        owner = msg.sender;\n        regFee = 2 ether;\n    }\n    \n    function () payable external{\n        balances[(msg.sender)] -= msg.value;\n        balances[address(this)] += msg.value;\n        registered.push(msg.sender);\n        a++;\n        // emit registeration(msg.sender);\n    }\n    \n    function distri(address payable _winner) public{\n        winner = _winner;\n        winner.transfer(address(this).balance);\n    }\n}\n\ncontract subm{\n    address winner;\n    \n    function result(address _a) public{\n        if(winner == address(0)){\n            winner = _a;\n        }\n        else    return;\n    }\n}\n",
  "sourcePath": "/home/hrishabh/Desktop/dCoders/contracts/dCoders.sol",
  "compiler": {
    "name": "solc",
    "version": "0.5.0+commit.1d4f565a.Emscripten.clang"
  },
  "schemaVersion": "3.0.0",
  "updatedAt": "2019-01-20T06:02:58.735Z",
  "devdoc": {
    "methods": {}
  },
  "userdoc": {
    "methods": {}
  }
}