{
  "contractName": "dCoders",
  "abi": [
    {
      "constant": true,
      "inputs": [],
      "name": "organiser",
      "outputs": [
        {
          "name": "",
          "type": "address"
        }
      ],
      "payable": false,
      "stateMutability": "view",
      "type": "function"
    },
    {
      "constant": true,
      "inputs": [],
      "name": "regFee",
      "outputs": [
        {
          "name": "",
          "type": "uint256"
        }
      ],
      "payable": false,
      "stateMutability": "view",
      "type": "function"
    },
    {
      "constant": true,
      "inputs": [
        {
          "name": "",
          "type": "address"
        }
      ],
      "name": "balance",
      "outputs": [
        {
          "name": "",
          "type": "uint256"
        }
      ],
      "payable": false,
      "stateMutability": "view",
      "type": "function"
    },
    {
      "constant": true,
      "inputs": [],
      "name": "numRegistrants",
      "outputs": [
        {
          "name": "",
          "type": "uint256"
        }
      ],
      "payable": false,
      "stateMutability": "view",
      "type": "function"
    },
    {
      "inputs": [],
      "payable": false,
      "stateMutability": "nonpayable",
      "type": "constructor"
    },
    {
      "payable": true,
      "stateMutability": "payable",
      "type": "fallback"
    },
    {
      "anonymous": false,
      "inputs": [
        {
          "indexed": true,
          "name": "_from",
          "type": "address"
        }
      ],
      "name": "Register",
      "type": "event"
    }
  ],
  "bytecode": "0x608060405234801561001057600080fd5b50336000806101000a81548173ffffffffffffffffffffffffffffffffffffffff021916908373ffffffffffffffffffffffffffffffffffffffff16021790555060006001819055506002808190555061028c8061006f6000396000f3fe608060405260043610610062576000357c0100000000000000000000000000000000000000000000000000000000900463ffffffff1680637e537486146101055780638fff20f31461015c578063e3d670d714610187578063ec3a6f73146101ec575b60023414151561007157600080fd5b600254600360003073ffffffffffffffffffffffffffffffffffffffff1673ffffffffffffffffffffffffffffffffffffffff168152602001908152602001600020600082825401925050819055503373ffffffffffffffffffffffffffffffffffffffff167feeda149c76076b34d4b9d8896c2f7efc0d33d1c7b53ea3c5db490d64613f603a60405160405180910390a2005b34801561011157600080fd5b5061011a610217565b604051808273ffffffffffffffffffffffffffffffffffffffff1673ffffffffffffffffffffffffffffffffffffffff16815260200191505060405180910390f35b34801561016857600080fd5b5061017161023c565b6040518082815260200191505060405180910390f35b34801561019357600080fd5b506101d6600480360360208110156101aa57600080fd5b81019080803573ffffffffffffffffffffffffffffffffffffffff169060200190929190505050610242565b6040518082815260200191505060405180910390f35b3480156101f857600080fd5b5061020161025a565b6040518082815260200191505060405180910390f35b6000809054906101000a900473ffffffffffffffffffffffffffffffffffffffff1681565b60025481565b60036020528060005260406000206000915090505481565b6001548156fea165627a7a723058200e37363a49efce6240802a4220842681e6327fc8e145dc361dde5b7522c886610029",
  "source": "pragma solidity >=0.4.22;\n\n\ncontract dCoders {\n  address public organiser;\n  uint public numRegistrants;\n  uint public regFee;\n  event Register(address indexed _from);\n  mapping (address => uint) public balance;  \n\n  constructor() public {\n    organiser = msg.sender;\n    numRegistrants = 0;\n    regFee = 2 wei;\n  }\n\n  function () payable external {\n require(msg.value == 2 wei);\n balance[address(this)] += regFee;     \n emit Register(msg.sender);  \n}\n\n}\n",
  "sourcePath": "/home/hrishabh/Desktop/dCoders/contracts/dCoders.sol",
  "compiler": {
    "name": "solc",
    "version": "0.5.0+commit.1d4f565a.Emscripten.clang"
  },
  "schemaVersion": "3.0.0",
  "updatedAt": "2019-01-19T07:16:14.406Z",
  "devdoc": {
    "methods": {}
  },
  "userdoc": {
    "methods": {}
  }
}