{
  "contractName": "dCoders",
  "abi": [
    {
      "constant": true,
      "inputs": [],
      "name": "organiser",
      "outputs": [
        {
          "name": "",
          "type": "address"
        }
      ],
      "payable": false,
      "stateMutability": "view",
      "type": "function"
    },
    {
      "constant": true,
      "inputs": [],
      "name": "regFee",
      "outputs": [
        {
          "name": "",
          "type": "uint256"
        }
      ],
      "payable": false,
      "stateMutability": "view",
      "type": "function"
    },
    {
      "constant": true,
      "inputs": [
        {
          "name": "",
          "type": "address"
        }
      ],
      "name": "balance",
      "outputs": [
        {
          "name": "",
          "type": "uint256"
        }
      ],
      "payable": false,
      "stateMutability": "view",
      "type": "function"
    },
    {
      "constant": true,
      "inputs": [],
      "name": "numRegistrants",
      "outputs": [
        {
          "name": "",
          "type": "uint256"
        }
      ],
      "payable": false,
      "stateMutability": "view",
      "type": "function"
    },
    {
      "inputs": [],
      "payable": false,
      "stateMutability": "nonpayable",
      "type": "constructor"
    },
    {
      "payable": true,
      "stateMutability": "payable",
      "type": "fallback"
    },
    {
      "anonymous": false,
      "inputs": [
        {
          "indexed": true,
          "name": "_from",
          "type": "address"
        },
        {
          "indexed": true,
          "name": "_amount",
          "type": "uint256"
        }
      ],
      "name": "Register",
      "type": "event"
    }
  ],
  "bytecode": "0x608060405234801561001057600080fd5b50336000806101000a81548173ffffffffffffffffffffffffffffffffffffffff021916908373ffffffffffffffffffffffffffffffffffffffff16021790555060006001819055506702c68af0bb140000600281905550610295806100776000396000f3fe608060405260043610610062576000357c0100000000000000000000000000000000000000000000000000000000900463ffffffff1680637e5374861461010e5780638fff20f314610165578063e3d670d714610190578063ec3a6f73146101f5575b600034905060025481141515610078575061010c565b600254600360003073ffffffffffffffffffffffffffffffffffffffff1673ffffffffffffffffffffffffffffffffffffffff16815260200190815260200160002060008282540192505081905550343373ffffffffffffffffffffffffffffffffffffffff167e7dc6ab80cc84c043b7b8d4fcafc802187470087f7ea7fccd2e17aecd0256a160405160405180910390a3505b005b34801561011a57600080fd5b50610123610220565b604051808273ffffffffffffffffffffffffffffffffffffffff1673ffffffffffffffffffffffffffffffffffffffff16815260200191505060405180910390f35b34801561017157600080fd5b5061017a610245565b6040518082815260200191505060405180910390f35b34801561019c57600080fd5b506101df600480360360208110156101b357600080fd5b81019080803573ffffffffffffffffffffffffffffffffffffffff16906020019092919050505061024b565b6040518082815260200191505060405180910390f35b34801561020157600080fd5b5061020a610263565b6040518082815260200191505060405180910390f35b6000809054906101000a900473ffffffffffffffffffffffffffffffffffffffff1681565b60025481565b60036020528060005260406000206000915090505481565b6001548156fea165627a7a723058201bc843f9b9a5fd018374e20db82e5514898350b80c4dfd6b3c707ce7fd26ee410029",
  "source": "pragma solidity >=0.4.22;\n\n\ncontract dCoders {\n  address public organiser;\n  uint public numRegistrants;\n  uint public regFee;\n  event Register(address indexed _from,uint indexed _amount);\n  mapping (address => uint) public balance;  \n\n  constructor() public {\n    organiser = msg.sender;\n    numRegistrants = 0;\n    regFee = 200000000000000000 wei;\n  }\n\n  function () payable external {\n//  require(msg.value == regFee);\nuint256 cash = msg.value;\nif(cash != regFee)  {return;}\n\n// if(msg.value != regFee) {return;}\nelse{\n balance[address(this)] += regFee;     \n emit Register(msg.sender,msg.value);  \n  }\n}\n\n}\n",
  "sourcePath": "/home/hrishabh/Desktop/dCoders/contracts/dCoders.sol",
  "compiler": {
    "name": "solc",
    "version": "0.5.0+commit.1d4f565a.Emscripten.clang"
  },
  "schemaVersion": "3.0.0",
  "updatedAt": "2019-01-19T08:17:00.694Z",
  "devdoc": {
    "methods": {}
  },
  "userdoc": {
    "methods": {}
  }
}