{
  "contractName": "subm",
  "abi": [
    {
      "constant": false,
      "inputs": [
        {
          "name": "_a",
          "type": "address"
        }
      ],
      "name": "result",
      "outputs": [],
      "payable": false,
      "stateMutability": "nonpayable",
      "type": "function"
    }
  ],
  "bytecode": "0x608060405234801561001057600080fd5b50610167806100206000396000f3fe608060405260043610610041576000357c0100000000000000000000000000000000000000000000000000000000900463ffffffff16806377302b0b14610046575b600080fd5b34801561005257600080fd5b506100956004803603602081101561006957600080fd5b81019080803573ffffffffffffffffffffffffffffffffffffffff169060200190929190505050610097565b005b600073ffffffffffffffffffffffffffffffffffffffff166000809054906101000a900473ffffffffffffffffffffffffffffffffffffffff1673ffffffffffffffffffffffffffffffffffffffff16141561013257806000806101000a81548173ffffffffffffffffffffffffffffffffffffffff021916908373ffffffffffffffffffffffffffffffffffffffff160217905550610137565b610138565b5b5056fea165627a7a72305820c3a9c20b9b941cc3a87e55d93c2fc4fbec9210902f05fd5033526bd645a0a6b40029",
  "source": "pragma solidity >=0.4.22;\n\ncontract dCoders{\n    \n    address owner;\n    uint256 regFee = 2 ether;\n    address[] private registered;\n    uint a = 0;\n    \n    mapping(address => uint256) public balances;\n    address payable winner;\n    \n    event prizeDistribution( address indexed _buyer, uint256 _amount);\n    \n    constructor() public{\n        owner = msg.sender;\n        regFee = 2 ether;\n    }\n    \n    function () payable external{\n        balances[(msg.sender)] -= msg.value;\n        balances[address(this)] += msg.value;\n        registered.push(msg.sender);\n        a++;\n        // emit registeration(msg.sender);\n    }\n    \n    function distri(address payable _winner) public{\n        winner = _winner;\n        winner.transfer(address(this).balance);\n    }\n}\n\ncontract subm{\n    address winner;\n    \n    function result(address _a) public{\n        if(winner == address(0)){\n            winner = _a;\n        }\n        else    return;\n    }\n}\n",
  "sourcePath": "/home/hrishabh/Desktop/dCoders/contracts/dCoders.sol",
  "compiler": {
    "name": "solc",
    "version": "0.5.0+commit.1d4f565a.Emscripten.clang"
  },
  "schemaVersion": "3.0.0",
  "updatedAt": "2019-01-19T21:24:49.231Z",
  "devdoc": {
    "methods": {}
  },
  "userdoc": {
    "methods": {}
  }
}